{
  "_format": "hh-sol-artifact-1",
  "contractName": "ProfileImageNFT",
  "sourceName": "contracts/MintProfileImage.sol",
  "abi": [
    {
      "inputs": [
        {
          "internalType": "address",
          "name": "initialOwner",
          "type": "address"
        }
      ],
      "stateMutability": "nonpayable",
      "type": "constructor"
    },
    {
      "inputs": [
        {
          "internalType": "address",
          "name": "sender",
          "type": "address"
        },
        {
          "internalType": "uint256",
          "name": "tokenId",
          "type": "uint256"
        },
        {
          "internalType": "address",
          "name": "owner",
          "type": "address"
        }
      ],
      "name": "ERC721IncorrectOwner",
      "type": "error"
    },
    {
      "inputs": [
        {
          "internalType": "address",
          "name": "operator",
          "type": "address"
        },
        {
          "internalType": "uint256",
          "name": "tokenId",
          "type": "uint256"
        }
      ],
      "name": "ERC721InsufficientApproval",
      "type": "error"
    },
    {
      "inputs": [
        {
          "internalType": "address",
          "name": "approver",
          "type": "address"
        }
      ],
      "name": "ERC721InvalidApprover",
      "type": "error"
    },
    {
      "inputs": [
        {
          "internalType": "address",
          "name": "operator",
          "type": "address"
        }
      ],
      "name": "ERC721InvalidOperator",
      "type": "error"
    },
    {
      "inputs": [
        {
          "internalType": "address",
          "name": "owner",
          "type": "address"
        }
      ],
      "name": "ERC721InvalidOwner",
      "type": "error"
    },
    {
      "inputs": [
        {
          "internalType": "address",
          "name": "receiver",
          "type": "address"
        }
      ],
      "name": "ERC721InvalidReceiver",
      "type": "error"
    },
    {
      "inputs": [
        {
          "internalType": "address",
          "name": "sender",
          "type": "address"
        }
      ],
      "name": "ERC721InvalidSender",
      "type": "error"
    },
    {
      "inputs": [
        {
          "internalType": "uint256",
          "name": "tokenId",
          "type": "uint256"
        }
      ],
      "name": "ERC721NonexistentToken",
      "type": "error"
    },
    {
      "inputs": [
        {
          "internalType": "address",
          "name": "owner",
          "type": "address"
        }
      ],
      "name": "OwnableInvalidOwner",
      "type": "error"
    },
    {
      "inputs": [
        {
          "internalType": "address",
          "name": "account",
          "type": "address"
        }
      ],
      "name": "OwnableUnauthorizedAccount",
      "type": "error"
    },
    {
      "anonymous": false,
      "inputs": [
        {
          "indexed": true,
          "internalType": "address",
          "name": "owner",
          "type": "address"
        },
        {
          "indexed": true,
          "internalType": "address",
          "name": "approved",
          "type": "address"
        },
        {
          "indexed": true,
          "internalType": "uint256",
          "name": "tokenId",
          "type": "uint256"
        }
      ],
      "name": "Approval",
      "type": "event"
    },
    {
      "anonymous": false,
      "inputs": [
        {
          "indexed": true,
          "internalType": "address",
          "name": "owner",
          "type": "address"
        },
        {
          "indexed": true,
          "internalType": "address",
          "name": "operator",
          "type": "address"
        },
        {
          "indexed": false,
          "internalType": "bool",
          "name": "approved",
          "type": "bool"
        }
      ],
      "name": "ApprovalForAll",
      "type": "event"
    },
    {
      "anonymous": false,
      "inputs": [
        {
          "indexed": true,
          "internalType": "address",
          "name": "previousOwner",
          "type": "address"
        },
        {
          "indexed": true,
          "internalType": "address",
          "name": "newOwner",
          "type": "address"
        }
      ],
      "name": "OwnershipTransferred",
      "type": "event"
    },
    {
      "anonymous": false,
      "inputs": [
        {
          "indexed": true,
          "internalType": "address",
          "name": "from",
          "type": "address"
        },
        {
          "indexed": true,
          "internalType": "address",
          "name": "to",
          "type": "address"
        },
        {
          "indexed": true,
          "internalType": "uint256",
          "name": "tokenId",
          "type": "uint256"
        }
      ],
      "name": "Transfer",
      "type": "event"
    },
    {
      "inputs": [
        {
          "internalType": "address",
          "name": "to",
          "type": "address"
        },
        {
          "internalType": "uint256",
          "name": "tokenId",
          "type": "uint256"
        }
      ],
      "name": "approve",
      "outputs": [],
      "stateMutability": "nonpayable",
      "type": "function"
    },
    {
      "inputs": [
        {
          "internalType": "address",
          "name": "owner",
          "type": "address"
        }
      ],
      "name": "balanceOf",
      "outputs": [
        {
          "internalType": "uint256",
          "name": "",
          "type": "uint256"
        }
      ],
      "stateMutability": "view",
      "type": "function"
    },
    {
      "inputs": [],
      "name": "getAllToken",
      "outputs": [
        {
          "components": [
            {
              "internalType": "uint256",
              "name": "id",
              "type": "uint256"
            },
            {
              "internalType": "string",
              "name": "uri",
              "type": "string"
            },
            {
              "internalType": "string",
              "name": "space",
              "type": "string"
            }
          ],
          "internalType": "struct ProfileImageNFT.RenderToken[]",
          "name": "",
          "type": "tuple[]"
        }
      ],
      "stateMutability": "view",
      "type": "function"
    },
    {
      "inputs": [
        {
          "internalType": "uint256",
          "name": "tokenId",
          "type": "uint256"
        }
      ],
      "name": "getApproved",
      "outputs": [
        {
          "internalType": "address",
          "name": "",
          "type": "address"
        }
      ],
      "stateMutability": "view",
      "type": "function"
    },
    {
      "inputs": [
        {
          "internalType": "address",
          "name": "owner",
          "type": "address"
        },
        {
          "internalType": "address",
          "name": "operator",
          "type": "address"
        }
      ],
      "name": "isApprovedForAll",
      "outputs": [
        {
          "internalType": "bool",
          "name": "",
          "type": "bool"
        }
      ],
      "stateMutability": "view",
      "type": "function"
    },
    {
      "inputs": [
        {
          "internalType": "address",
          "name": "recipents",
          "type": "address"
        },
        {
          "internalType": "string",
          "name": "_uri",
          "type": "string"
        }
      ],
      "name": "mint",
      "outputs": [
        {
          "internalType": "uint256",
          "name": "",
          "type": "uint256"
        }
      ],
      "stateMutability": "nonpayable",
      "type": "function"
    },
    {
      "inputs": [],
      "name": "name",
      "outputs": [
        {
          "internalType": "string",
          "name": "",
          "type": "string"
        }
      ],
      "stateMutability": "view",
      "type": "function"
    },
    {
      "inputs": [],
      "name": "owner",
      "outputs": [
        {
          "internalType": "address",
          "name": "",
          "type": "address"
        }
      ],
      "stateMutability": "view",
      "type": "function"
    },
    {
      "inputs": [
        {
          "internalType": "uint256",
          "name": "tokenId",
          "type": "uint256"
        }
      ],
      "name": "ownerOf",
      "outputs": [
        {
          "internalType": "address",
          "name": "",
          "type": "address"
        }
      ],
      "stateMutability": "view",
      "type": "function"
    },
    {
      "inputs": [],
      "name": "renounceOwnership",
      "outputs": [],
      "stateMutability": "nonpayable",
      "type": "function"
    },
    {
      "inputs": [
        {
          "internalType": "address",
          "name": "from",
          "type": "address"
        },
        {
          "internalType": "address",
          "name": "to",
          "type": "address"
        },
        {
          "internalType": "uint256",
          "name": "tokenId",
          "type": "uint256"
        }
      ],
      "name": "safeTransferFrom",
      "outputs": [],
      "stateMutability": "nonpayable",
      "type": "function"
    },
    {
      "inputs": [
        {
          "internalType": "address",
          "name": "from",
          "type": "address"
        },
        {
          "internalType": "address",
          "name": "to",
          "type": "address"
        },
        {
          "internalType": "uint256",
          "name": "tokenId",
          "type": "uint256"
        },
        {
          "internalType": "bytes",
          "name": "data",
          "type": "bytes"
        }
      ],
      "name": "safeTransferFrom",
      "outputs": [],
      "stateMutability": "nonpayable",
      "type": "function"
    },
    {
      "inputs": [
        {
          "internalType": "address",
          "name": "operator",
          "type": "address"
        },
        {
          "internalType": "bool",
          "name": "approved",
          "type": "bool"
        }
      ],
      "name": "setApprovalForAll",
      "outputs": [],
      "stateMutability": "nonpayable",
      "type": "function"
    },
    {
      "inputs": [
        {
          "internalType": "bytes4",
          "name": "interfaceId",
          "type": "bytes4"
        }
      ],
      "name": "supportsInterface",
      "outputs": [
        {
          "internalType": "bool",
          "name": "",
          "type": "bool"
        }
      ],
      "stateMutability": "view",
      "type": "function"
    },
    {
      "inputs": [],
      "name": "symbol",
      "outputs": [
        {
          "internalType": "string",
          "name": "",
          "type": "string"
        }
      ],
      "stateMutability": "view",
      "type": "function"
    },
    {
      "inputs": [
        {
          "internalType": "uint256",
          "name": "tokenId",
          "type": "uint256"
        }
      ],
      "name": "tokenURI",
      "outputs": [
        {
          "internalType": "string",
          "name": "",
          "type": "string"
        }
      ],
      "stateMutability": "view",
      "type": "function"
    },
    {
      "inputs": [
        {
          "internalType": "address",
          "name": "from",
          "type": "address"
        },
        {
          "internalType": "address",
          "name": "to",
          "type": "address"
        },
        {
          "internalType": "uint256",
          "name": "tokenId",
          "type": "uint256"
        }
      ],
      "name": "transferFrom",
      "outputs": [],
      "stateMutability": "nonpayable",
      "type": "function"
    },
    {
      "inputs": [
        {
          "internalType": "address",
          "name": "newOwner",
          "type": "address"
        }
      ],
      "name": "transferOwnership",
      "outputs": [],
      "stateMutability": "nonpayable",
      "type": "function"
    }
  ],
  "bytecode": "0x60806040523480156200001157600080fd5b5060405162002da638038062002da68339818101604052810190620000379190620002fa565b806040518060400160405280600f81526020017f50726f66696c65496d6167654e465400000000000000000000000000000000008152506040518060400160405280600381526020017f50494e00000000000000000000000000000000000000000000000000000000008152508160009081620000b59190620005a6565b508060019081620000c79190620005a6565b505050600073ffffffffffffffffffffffffffffffffffffffff168173ffffffffffffffffffffffffffffffffffffffff16036200013f5760006040517f1e4fbdf70000000000000000000000000000000000000000000000000000000081526004016200013691906200069e565b60405180910390fd5b6200015081620001ca60201b60201c565b50600073ffffffffffffffffffffffffffffffffffffffff168173ffffffffffffffffffffffffffffffffffffffff1603620001c3576040517f08c379a0000000000000000000000000000000000000000000000000000000008152600401620001ba9062000742565b60405180910390fd5b5062000764565b6000600660009054906101000a900473ffffffffffffffffffffffffffffffffffffffff16905081600660006101000a81548173ffffffffffffffffffffffffffffffffffffffff021916908373ffffffffffffffffffffffffffffffffffffffff1602179055508173ffffffffffffffffffffffffffffffffffffffff168173ffffffffffffffffffffffffffffffffffffffff167f8be0079c531659141344cd1fd0a4f28419497f9722a3daafe3b4186f6b6457e060405160405180910390a35050565b600080fd5b600073ffffffffffffffffffffffffffffffffffffffff82169050919050565b6000620002c28262000295565b9050919050565b620002d481620002b5565b8114620002e057600080fd5b50565b600081519050620002f481620002c9565b92915050565b60006020828403121562000313576200031262000290565b5b60006200032384828501620002e3565b91505092915050565b600081519050919050565b7f4e487b7100000000000000000000000000000000000000000000000000000000600052604160045260246000fd5b7f4e487b7100000000000000000000000000000000000000000000000000000000600052602260045260246000fd5b60006002820490506001821680620003ae57607f821691505b602082108103620003c457620003c362000366565b5b50919050565b60008190508160005260206000209050919050565b60006020601f8301049050919050565b600082821b905092915050565b6000600883026200042e7fffffffffffffffffffffffffffffffffffffffffffffffffffffffffffffffff82620003ef565b6200043a8683620003ef565b95508019841693508086168417925050509392505050565b6000819050919050565b6000819050919050565b600062000487620004816200047b8462000452565b6200045c565b62000452565b9050919050565b6000819050919050565b620004a38362000466565b620004bb620004b2826200048e565b848454620003fc565b825550505050565b600090565b620004d2620004c3565b620004df81848462000498565b505050565b5b818110156200050757620004fb600082620004c8565b600181019050620004e5565b5050565b601f82111562000556576200052081620003ca565b6200052b84620003df565b810160208510156200053b578190505b620005536200054a85620003df565b830182620004e4565b50505b505050565b600082821c905092915050565b60006200057b600019846008026200055b565b1980831691505092915050565b600062000596838362000568565b9150826002028217905092915050565b620005b1826200032c565b67ffffffffffffffff811115620005cd57620005cc62000337565b5b620005d9825462000395565b620005e68282856200050b565b600060209050601f8311600181146200061e576000841562000609578287015190505b62000615858262000588565b86555062000685565b601f1984166200062e86620003ca565b60005b82811015620006585784890151825560018201915060208501945060208101905062000631565b8683101562000678578489015162000674601f89168262000568565b8355505b6001600288020188555050505b505050505050565b6200069881620002b5565b82525050565b6000602082019050620006b560008301846200068d565b92915050565b600082825260208201905092915050565b7f496e697469616c206f776e657220616464726573732063616e6e6f742062652060008201527f7a65726f20616464726573730000000000000000000000000000000000000000602082015250565b60006200072a602c83620006bb565b91506200073782620006cc565b604082019050919050565b600060208201905081810360008301526200075d816200071b565b9050919050565b61263280620007746000396000f3fe608060405234801561001057600080fd5b50600436106101165760003560e01c806385e3c1d4116100a2578063b88d4fde11610071578063b88d4fde146102cd578063c87b56dd146102e9578063d0def52114610319578063e985e9c514610349578063f2fde38b1461037957610116565b806385e3c1d4146102575780638da5cb5b1461027557806395d89b4114610293578063a22cb465146102b157610116565b806323b872dd116100e957806323b872dd146101b557806342842e0e146101d15780636352211e146101ed57806370a082311461021d578063715018a61461024d57610116565b806301ffc9a71461011b57806306fdde031461014b578063081812fc14610169578063095ea7b314610199575b600080fd5b610135600480360381019061013091906118ea565b610395565b6040516101429190611932565b60405180910390f35b610153610477565b60405161016091906119dd565b60405180910390f35b610183600480360381019061017e9190611a35565b610509565b6040516101909190611aa3565b60405180910390f35b6101b360048036038101906101ae9190611aea565b610525565b005b6101cf60048036038101906101ca9190611b2a565b61053b565b005b6101eb60048036038101906101e69190611b2a565b61063d565b005b61020760048036038101906102029190611a35565b61065d565b6040516102149190611aa3565b60405180910390f35b61023760048036038101906102329190611b7d565b61066f565b6040516102449190611bb9565b60405180910390f35b610255610729565b005b61025f61073d565b60405161026c9190611d46565b60405180910390f35b61027d610879565b60405161028a9190611aa3565b60405180910390f35b61029b6108a3565b6040516102a891906119dd565b60405180910390f35b6102cb60048036038101906102c69190611d94565b610935565b005b6102e760048036038101906102e29190611f09565b61094b565b005b61030360048036038101906102fe9190611a35565b610968565b60405161031091906119dd565b60405180910390f35b610333600480360381019061032e919061202d565b610a8a565b6040516103409190611bb9565b60405180910390f35b610363600480360381019061035e9190612089565b610ac8565b6040516103709190611932565b60405180910390f35b610393600480360381019061038e9190611b7d565b610b5c565b005b60007f80ac58cd000000000000000000000000000000000000000000000000000000007bffffffffffffffffffffffffffffffffffffffffffffffffffffffff1916827bffffffffffffffffffffffffffffffffffffffffffffffffffffffff1916148061046057507f5b5e139f000000000000000000000000000000000000000000000000000000007bffffffffffffffffffffffffffffffffffffffffffffffffffffffff1916827bffffffffffffffffffffffffffffffffffffffffffffffffffffffff1916145b80610470575061046f82610be2565b5b9050919050565b606060008054610486906120f8565b80601f01602080910402602001604051908101604052809291908181526020018280546104b2906120f8565b80156104ff5780601f106104d4576101008083540402835291602001916104ff565b820191906000526020600020905b8154815290600101906020018083116104e257829003601f168201915b5050505050905090565b600061051482610c4c565b5061051e82610cd4565b9050919050565b6105378282610532610d11565b610d19565b5050565b600073ffffffffffffffffffffffffffffffffffffffff168273ffffffffffffffffffffffffffffffffffffffff16036105ad5760006040517f64a0ae920000000000000000000000000000000000000000000000000000000081526004016105a49190611aa3565b60405180910390fd5b60006105c183836105bc610d11565b610d2b565b90508373ffffffffffffffffffffffffffffffffffffffff168173ffffffffffffffffffffffffffffffffffffffff1614610637578382826040517f64283d7b00000000000000000000000000000000000000000000000000000000815260040161062e93929190612129565b60405180910390fd5b50505050565b6106588383836040518060200160405280600081525061094b565b505050565b600061066882610c4c565b9050919050565b60008073ffffffffffffffffffffffffffffffffffffffff168273ffffffffffffffffffffffffffffffffffffffff16036106e25760006040517f89c62b640000000000000000000000000000000000000000000000000000000081526004016106d99190611aa3565b60405180910390fd5b600360008373ffffffffffffffffffffffffffffffffffffffff1673ffffffffffffffffffffffffffffffffffffffff168152602001908152602001600020549050919050565b610731610f45565b61073b6000610fcc565b565b6060600060075467ffffffffffffffff81111561075d5761075c611dde565b5b60405190808252806020026020018201604052801561079657816020015b61078361185d565b81526020019060019003908161077b5790505b50905060005b600754811161087157600073ffffffffffffffffffffffffffffffffffffffff166107c68261065d565b73ffffffffffffffffffffffffffffffffffffffff161461085e5760006107ec82610968565b905060405180606001604052808381526020018281526020016040518060400160405280600181526020017f200000000000000000000000000000000000000000000000000000000000000081525081525083838151811061085157610850612160565b5b6020026020010181905250505b8080610869906121be565b91505061079c565b508091505090565b6000600660009054906101000a900473ffffffffffffffffffffffffffffffffffffffff16905090565b6060600180546108b2906120f8565b80601f01602080910402602001604051908101604052809291908181526020018280546108de906120f8565b801561092b5780601f106109005761010080835404028352916020019161092b565b820191906000526020600020905b81548152906001019060200180831161090e57829003601f168201915b5050505050905090565b610947610940610d11565b8383611092565b5050565b61095684848461053b565b61096284848484611201565b50505050565b6060600073ffffffffffffffffffffffffffffffffffffffff1661098b8361065d565b73ffffffffffffffffffffffffffffffffffffffff16036109e1576040517f08c379a00000000000000000000000000000000000000000000000000000000081526004016109d890612252565b60405180910390fd5b6000600860008481526020019081526020016000208054610a01906120f8565b80601f0160208091040260200160405190810160405280929190818152602001828054610a2d906120f8565b8015610a7a5780601f10610a4f57610100808354040283529160200191610a7a565b820191906000526020600020905b815481529060010190602001808311610a5d57829003601f168201915b5050505050905080915050919050565b6000806007549050610a9c84826113b8565b610aa681846114b1565b60076000815480929190610ab9906121be565b91905055508091505092915050565b6000600560008473ffffffffffffffffffffffffffffffffffffffff1673ffffffffffffffffffffffffffffffffffffffff16815260200190815260200160002060008373ffffffffffffffffffffffffffffffffffffffff1673ffffffffffffffffffffffffffffffffffffffff16815260200190815260200160002060009054906101000a900460ff16905092915050565b610b64610f45565b600073ffffffffffffffffffffffffffffffffffffffff168173ffffffffffffffffffffffffffffffffffffffff1603610bd65760006040517f1e4fbdf7000000000000000000000000000000000000000000000000000000008152600401610bcd9190611aa3565b60405180910390fd5b610bdf81610fcc565b50565b60007f01ffc9a7000000000000000000000000000000000000000000000000000000007bffffffffffffffffffffffffffffffffffffffffffffffffffffffff1916827bffffffffffffffffffffffffffffffffffffffffffffffffffffffff1916149050919050565b600080610c58836114d6565b9050600073ffffffffffffffffffffffffffffffffffffffff168173ffffffffffffffffffffffffffffffffffffffff1603610ccb57826040517f7e273289000000000000000000000000000000000000000000000000000000008152600401610cc29190611bb9565b60405180910390fd5b80915050919050565b60006004600083815260200190815260200160002060009054906101000a900473ffffffffffffffffffffffffffffffffffffffff169050919050565b600033905090565b610d268383836001611513565b505050565b600080610d37846114d6565b9050600073ffffffffffffffffffffffffffffffffffffffff168373ffffffffffffffffffffffffffffffffffffffff1614610d7957610d788184866116d8565b5b600073ffffffffffffffffffffffffffffffffffffffff168173ffffffffffffffffffffffffffffffffffffffff1614610e0a57610dbb600085600080611513565b6001600360008373ffffffffffffffffffffffffffffffffffffffff1673ffffffffffffffffffffffffffffffffffffffff168152602001908152602001600020600082825403925050819055505b600073ffffffffffffffffffffffffffffffffffffffff168573ffffffffffffffffffffffffffffffffffffffff1614610e8d576001600360008773ffffffffffffffffffffffffffffffffffffffff1673ffffffffffffffffffffffffffffffffffffffff168152602001908152602001600020600082825401925050819055505b846002600086815260200190815260200160002060006101000a81548173ffffffffffffffffffffffffffffffffffffffff021916908373ffffffffffffffffffffffffffffffffffffffff160217905550838573ffffffffffffffffffffffffffffffffffffffff168273ffffffffffffffffffffffffffffffffffffffff167fddf252ad1be2c89b69c2b068fc378daa952ba7f163c4a11628f55a4df523b3ef60405160405180910390a4809150509392505050565b610f4d610d11565b73ffffffffffffffffffffffffffffffffffffffff16610f6b610879565b73ffffffffffffffffffffffffffffffffffffffff1614610fca57610f8e610d11565b6040517f118cdaa7000000000000000000000000000000000000000000000000000000008152600401610fc19190611aa3565b60405180910390fd5b565b6000600660009054906101000a900473ffffffffffffffffffffffffffffffffffffffff16905081600660006101000a81548173ffffffffffffffffffffffffffffffffffffffff021916908373ffffffffffffffffffffffffffffffffffffffff1602179055508173ffffffffffffffffffffffffffffffffffffffff168173ffffffffffffffffffffffffffffffffffffffff167f8be0079c531659141344cd1fd0a4f28419497f9722a3daafe3b4186f6b6457e060405160405180910390a35050565b600073ffffffffffffffffffffffffffffffffffffffff168273ffffffffffffffffffffffffffffffffffffffff160361110357816040517f5b08ba180000000000000000000000000000000000000000000000000000000081526004016110fa9190611aa3565b60405180910390fd5b80600560008573ffffffffffffffffffffffffffffffffffffffff1673ffffffffffffffffffffffffffffffffffffffff16815260200190815260200160002060008473ffffffffffffffffffffffffffffffffffffffff1673ffffffffffffffffffffffffffffffffffffffff16815260200190815260200160002060006101000a81548160ff0219169083151502179055508173ffffffffffffffffffffffffffffffffffffffff168373ffffffffffffffffffffffffffffffffffffffff167f17307eab39ab6107e8899845ad3d59bd9653f200f220920489ca2b5937696c31836040516111f49190611932565b60405180910390a3505050565b60008373ffffffffffffffffffffffffffffffffffffffff163b11156113b2578273ffffffffffffffffffffffffffffffffffffffff1663150b7a02611245610d11565b8685856040518563ffffffff1660e01b815260040161126794939291906122c7565b6020604051808303816000875af19250505080156112a357506040513d601f19601f820116820180604052508101906112a09190612328565b60015b611327573d80600081146112d3576040519150601f19603f3d011682016040523d82523d6000602084013e6112d8565b606091505b50600081510361131f57836040517f64a0ae920000000000000000000000000000000000000000000000000000000081526004016113169190611aa3565b60405180910390fd5b805181602001fd5b63150b7a0260e01b7bffffffffffffffffffffffffffffffffffffffffffffffffffffffff1916817bffffffffffffffffffffffffffffffffffffffffffffffffffffffff1916146113b057836040517f64a0ae920000000000000000000000000000000000000000000000000000000081526004016113a79190611aa3565b60405180910390fd5b505b50505050565b600073ffffffffffffffffffffffffffffffffffffffff168273ffffffffffffffffffffffffffffffffffffffff160361142a5760006040517f64a0ae920000000000000000000000000000000000000000000000000000000081526004016114219190611aa3565b60405180910390fd5b600061143883836000610d2b565b9050600073ffffffffffffffffffffffffffffffffffffffff168173ffffffffffffffffffffffffffffffffffffffff16146114ac5760006040517f73c6ac6e0000000000000000000000000000000000000000000000000000000081526004016114a39190611aa3565b60405180910390fd5b505050565b806008600084815260200190815260200160002090816114d19190612501565b505050565b60006002600083815260200190815260200160002060009054906101000a900473ffffffffffffffffffffffffffffffffffffffff169050919050565b808061154c5750600073ffffffffffffffffffffffffffffffffffffffff168273ffffffffffffffffffffffffffffffffffffffff1614155b1561168057600061155c84610c4c565b9050600073ffffffffffffffffffffffffffffffffffffffff168373ffffffffffffffffffffffffffffffffffffffff16141580156115c757508273ffffffffffffffffffffffffffffffffffffffff168173ffffffffffffffffffffffffffffffffffffffff1614155b80156115da57506115d88184610ac8565b155b1561161c57826040517fa9fbf51f0000000000000000000000000000000000000000000000000000000081526004016116139190611aa3565b60405180910390fd5b811561167e57838573ffffffffffffffffffffffffffffffffffffffff168273ffffffffffffffffffffffffffffffffffffffff167f8c5be1e5ebec7d5bd14f71427d1e84f3dd0314c0f7b2291e5b200ac8c7c3b92560405160405180910390a45b505b836004600085815260200190815260200160002060006101000a81548173ffffffffffffffffffffffffffffffffffffffff021916908373ffffffffffffffffffffffffffffffffffffffff16021790555050505050565b6116e383838361179c565b61179757600073ffffffffffffffffffffffffffffffffffffffff168373ffffffffffffffffffffffffffffffffffffffff160361175857806040517f7e27328900000000000000000000000000000000000000000000000000000000815260040161174f9190611bb9565b60405180910390fd5b81816040517f177e802f00000000000000000000000000000000000000000000000000000000815260040161178e9291906125d3565b60405180910390fd5b505050565b60008073ffffffffffffffffffffffffffffffffffffffff168373ffffffffffffffffffffffffffffffffffffffff161415801561185457508273ffffffffffffffffffffffffffffffffffffffff168473ffffffffffffffffffffffffffffffffffffffff16148061181557506118148484610ac8565b5b8061185357508273ffffffffffffffffffffffffffffffffffffffff1661183b83610cd4565b73ffffffffffffffffffffffffffffffffffffffff16145b5b90509392505050565b60405180606001604052806000815260200160608152602001606081525090565b6000604051905090565b600080fd5b600080fd5b60007fffffffff0000000000000000000000000000000000000000000000000000000082169050919050565b6118c781611892565b81146118d257600080fd5b50565b6000813590506118e4816118be565b92915050565b600060208284031215611900576118ff611888565b5b600061190e848285016118d5565b91505092915050565b60008115159050919050565b61192c81611917565b82525050565b60006020820190506119476000830184611923565b92915050565b600081519050919050565b600082825260208201905092915050565b60005b8381101561198757808201518184015260208101905061196c565b60008484015250505050565b6000601f19601f8301169050919050565b60006119af8261194d565b6119b98185611958565b93506119c9818560208601611969565b6119d281611993565b840191505092915050565b600060208201905081810360008301526119f781846119a4565b905092915050565b6000819050919050565b611a12816119ff565b8114611a1d57600080fd5b50565b600081359050611a2f81611a09565b92915050565b600060208284031215611a4b57611a4a611888565b5b6000611a5984828501611a20565b91505092915050565b600073ffffffffffffffffffffffffffffffffffffffff82169050919050565b6000611a8d82611a62565b9050919050565b611a9d81611a82565b82525050565b6000602082019050611ab86000830184611a94565b92915050565b611ac781611a82565b8114611ad257600080fd5b50565b600081359050611ae481611abe565b92915050565b60008060408385031215611b0157611b00611888565b5b6000611b0f85828601611ad5565b9250506020611b2085828601611a20565b9150509250929050565b600080600060608486031215611b4357611b42611888565b5b6000611b5186828701611ad5565b9350506020611b6286828701611ad5565b9250506040611b7386828701611a20565b9150509250925092565b600060208284031215611b9357611b92611888565b5b6000611ba184828501611ad5565b91505092915050565b611bb3816119ff565b82525050565b6000602082019050611bce6000830184611baa565b92915050565b600081519050919050565b600082825260208201905092915050565b6000819050602082019050919050565b611c09816119ff565b82525050565b600082825260208201905092915050565b6000611c2b8261194d565b611c358185611c0f565b9350611c45818560208601611969565b611c4e81611993565b840191505092915050565b6000606083016000830151611c716000860182611c00565b5060208301518482036020860152611c898282611c20565b91505060408301518482036040860152611ca38282611c20565b9150508091505092915050565b6000611cbc8383611c59565b905092915050565b6000602082019050919050565b6000611cdc82611bd4565b611ce68185611bdf565b935083602082028501611cf885611bf0565b8060005b85811015611d345784840389528151611d158582611cb0565b9450611d2083611cc4565b925060208a01995050600181019050611cfc565b50829750879550505050505092915050565b60006020820190508181036000830152611d608184611cd1565b905092915050565b611d7181611917565b8114611d7c57600080fd5b50565b600081359050611d8e81611d68565b92915050565b60008060408385031215611dab57611daa611888565b5b6000611db985828601611ad5565b9250506020611dca85828601611d7f565b9150509250929050565b600080fd5b600080fd5b7f4e487b7100000000000000000000000000000000000000000000000000000000600052604160045260246000fd5b611e1682611993565b810181811067ffffffffffffffff82111715611e3557611e34611dde565b5b80604052505050565b6000611e4861187e565b9050611e548282611e0d565b919050565b600067ffffffffffffffff821115611e7457611e73611dde565b5b611e7d82611993565b9050602081019050919050565b82818337600083830152505050565b6000611eac611ea784611e59565b611e3e565b905082815260208101848484011115611ec857611ec7611dd9565b5b611ed3848285611e8a565b509392505050565b600082601f830112611ef057611eef611dd4565b5b8135611f00848260208601611e99565b91505092915050565b60008060008060808587031215611f2357611f22611888565b5b6000611f3187828801611ad5565b9450506020611f4287828801611ad5565b9350506040611f5387828801611a20565b925050606085013567ffffffffffffffff811115611f7457611f7361188d565b5b611f8087828801611edb565b91505092959194509250565b600067ffffffffffffffff821115611fa757611fa6611dde565b5b611fb082611993565b9050602081019050919050565b6000611fd0611fcb84611f8c565b611e3e565b905082815260208101848484011115611fec57611feb611dd9565b5b611ff7848285611e8a565b509392505050565b600082601f83011261201457612013611dd4565b5b8135612024848260208601611fbd565b91505092915050565b6000806040838503121561204457612043611888565b5b600061205285828601611ad5565b925050602083013567ffffffffffffffff8111156120735761207261188d565b5b61207f85828601611fff565b9150509250929050565b600080604083850312156120a05761209f611888565b5b60006120ae85828601611ad5565b92505060206120bf85828601611ad5565b9150509250929050565b7f4e487b7100000000000000000000000000000000000000000000000000000000600052602260045260246000fd5b6000600282049050600182168061211057607f821691505b602082108103612123576121226120c9565b5b50919050565b600060608201905061213e6000830186611a94565b61214b6020830185611baa565b6121586040830184611a94565b949350505050565b7f4e487b7100000000000000000000000000000000000000000000000000000000600052603260045260246000fd5b7f4e487b7100000000000000000000000000000000000000000000000000000000600052601160045260246000fd5b60006121c9826119ff565b91507fffffffffffffffffffffffffffffffffffffffffffffffffffffffffffffffff82036121fb576121fa61218f565b5b600182019050919050565b7f555249206e6f74206578697374206f6e20746861742049440000000000000000600082015250565b600061223c601883611958565b915061224782612206565b602082019050919050565b6000602082019050818103600083015261226b8161222f565b9050919050565b600081519050919050565b600082825260208201905092915050565b600061229982612272565b6122a3818561227d565b93506122b3818560208601611969565b6122bc81611993565b840191505092915050565b60006080820190506122dc6000830187611a94565b6122e96020830186611a94565b6122f66040830185611baa565b8181036060830152612308818461228e565b905095945050505050565b600081519050612322816118be565b92915050565b60006020828403121561233e5761233d611888565b5b600061234c84828501612313565b91505092915050565b60008190508160005260206000209050919050565b60006020601f8301049050919050565b600082821b905092915050565b6000600883026123b77fffffffffffffffffffffffffffffffffffffffffffffffffffffffffffffffff8261237a565b6123c1868361237a565b95508019841693508086168417925050509392505050565b6000819050919050565b60006123fe6123f96123f4846119ff565b6123d9565b6119ff565b9050919050565b6000819050919050565b612418836123e3565b61242c61242482612405565b848454612387565b825550505050565b600090565b612441612434565b61244c81848461240f565b505050565b5b8181101561247057612465600082612439565b600181019050612452565b5050565b601f8211156124b55761248681612355565b61248f8461236a565b8101602085101561249e578190505b6124b26124aa8561236a565b830182612451565b50505b505050565b600082821c905092915050565b60006124d8600019846008026124ba565b1980831691505092915050565b60006124f183836124c7565b9150826002028217905092915050565b61250a8261194d565b67ffffffffffffffff81111561252357612522611dde565b5b61252d82546120f8565b612538828285612474565b600060209050601f83116001811461256b5760008415612559578287015190505b61256385826124e5565b8655506125cb565b601f19841661257986612355565b60005b828110156125a15784890151825560018201915060208501945060208101905061257c565b868310156125be57848901516125ba601f8916826124c7565b8355505b6001600288020188555050505b505050505050565b60006040820190506125e86000830185611a94565b6125f56020830184611baa565b939250505056fea2646970667358221220b1118e577502a6ea9823d825b869fb21db5f2cfe0293c47a24f9002b8bb932f364736f6c63430008140033",
  "linkReferences": {},
  "deployedLinkReferences": {}
}